{
    "_format": "hh-sol-artifact-1",
    "contractName": "TokenisedBallot",
    "sourceName": "contracts/TokenisedBallot.sol",
    "abi": [
        {
            "inputs": [
                {
                    "internalType": "bytes32[]",
                    "name": "_proposalNames",
                    "type": "bytes32[]"
                },
                {
                    "internalType": "address",
                    "name": "_tokenContract",
                    "type": "address"
                },
                {
                    "internalType": "uint256",
                    "name": "_referenceBlock",
                    "type": "uint256"
                }
            ],
            "stateMutability": "nonpayable",
            "type": "constructor"
        },
        {
            "anonymous": false,
            "inputs": [
                {
                    "indexed": true,
                    "internalType": "address",
                    "name": "voter",
                    "type": "address"
                },
                {
                    "indexed": true,
                    "internalType": "uint256",
                    "name": "proposal",
                    "type": "uint256"
                },
                {
                    "indexed": false,
                    "internalType": "uint256",
                    "name": "weight",
                    "type": "uint256"
                }
            ],
            "name": "Voted",
            "type": "event"
        },
        {
            "inputs": [
                {
                    "internalType": "uint256",
                    "name": "",
                    "type": "uint256"
                }
            ],
            "name": "proposals",
            "outputs": [
                {
                    "internalType": "bytes32",
                    "name": "name",
                    "type": "bytes32"
                },
                {
                    "internalType": "uint256",
                    "name": "voteCount",
                    "type": "uint256"
                }
            ],
            "stateMutability": "view",
            "type": "function"
        },
        {
            "inputs": [],
            "name": "referenceBlock",
            "outputs": [
                {
                    "internalType": "uint256",
                    "name": "",
                    "type": "uint256"
                }
            ],
            "stateMutability": "view",
            "type": "function"
        },
        {
            "inputs": [],
            "name": "tokenContract",
            "outputs": [
                {
                    "internalType": "contract ITokenisedVotes",
                    "name": "",
                    "type": "address"
                }
            ],
            "stateMutability": "view",
            "type": "function"
        },
        {
            "inputs": [
                {
                    "internalType": "uint256",
                    "name": "proposal",
                    "type": "uint256"
                },
                {
                    "internalType": "uint256",
                    "name": "amount",
                    "type": "uint256"
                }
            ],
            "name": "vote",
            "outputs": [],
            "stateMutability": "nonpayable",
            "type": "function"
        },
        {
            "inputs": [
                {
                    "internalType": "address",
                    "name": "account",
                    "type": "address"
                }
            ],
            "name": "votePower",
            "outputs": [
                {
                    "internalType": "uint256",
                    "name": "votePower_",
                    "type": "uint256"
                }
            ],
            "stateMutability": "view",
            "type": "function"
        },
        {
            "inputs": [
                {
                    "internalType": "address",
                    "name": "",
                    "type": "address"
                }
            ],
            "name": "votePowerSpent",
            "outputs": [
                {
                    "internalType": "uint256",
                    "name": "",
                    "type": "uint256"
                }
            ],
            "stateMutability": "view",
            "type": "function"
        },
        {
            "inputs": [],
            "name": "winnerName",
            "outputs": [
                {
                    "internalType": "bytes32",
                    "name": "winnerName_",
                    "type": "bytes32"
                }
            ],
            "stateMutability": "view",
            "type": "function"
        },
        {
            "inputs": [],
            "name": "winningProposal",
            "outputs": [
                {
                    "internalType": "uint256",
                    "name": "winningProposal_",
                    "type": "uint256"
                }
            ],
            "stateMutability": "view",
            "type": "function"
        }
    ],
    "bytecode": "0x60806040523480156200001157600080fd5b5060405162000ecd38038062000ecd833981810160405281019062000037919062000384565b60005b8351811015620000ce5760026040518060400160405280868481518110620000675762000066620003ff565b5b6020026020010151815260200160008152509080600181540180825580915050600190039060005260206000209060020201600090919091909150600082015181600001556020820151816001015550508080620000c5906200045d565b9150506200003a565b5081600160006101000a81548173ffffffffffffffffffffffffffffffffffffffff021916908373ffffffffffffffffffffffffffffffffffffffff16021790555080600081905550505050620004aa565b6000604051905090565b600080fd5b600080fd5b600080fd5b6000601f19601f8301169050919050565b7f4e487b7100000000000000000000000000000000000000000000000000000000600052604160045260246000fd5b620001848262000139565b810181811067ffffffffffffffff82111715620001a657620001a56200014a565b5b80604052505050565b6000620001bb62000120565b9050620001c9828262000179565b919050565b600067ffffffffffffffff821115620001ec57620001eb6200014a565b5b602082029050602081019050919050565b600080fd5b6000819050919050565b620002178162000202565b81146200022357600080fd5b50565b60008151905062000237816200020c565b92915050565b6000620002546200024e84620001ce565b620001af565b905080838252602082019050602084028301858111156200027a5762000279620001fd565b5b835b81811015620002a7578062000292888262000226565b8452602084019350506020810190506200027c565b5050509392505050565b600082601f830112620002c957620002c862000134565b5b8151620002db8482602086016200023d565b91505092915050565b600073ffffffffffffffffffffffffffffffffffffffff82169050919050565b60006200031182620002e4565b9050919050565b620003238162000304565b81146200032f57600080fd5b50565b600081519050620003438162000318565b92915050565b6000819050919050565b6200035e8162000349565b81146200036a57600080fd5b50565b6000815190506200037e8162000353565b92915050565b600080600060608486031215620003a0576200039f6200012a565b5b600084015167ffffffffffffffff811115620003c157620003c06200012f565b5b620003cf86828701620002b1565b9350506020620003e28682870162000332565b9250506040620003f5868287016200036d565b9150509250925092565b7f4e487b7100000000000000000000000000000000000000000000000000000000600052603260045260246000fd5b7f4e487b7100000000000000000000000000000000000000000000000000000000600052601160045260246000fd5b60006200046a8262000349565b91507fffffffffffffffffffffffffffffffffffffffffffffffffffffffffffffffff82036200049f576200049e6200042e565b5b600182019050919050565b610a1380620004ba6000396000f3fe608060405234801561001057600080fd5b50600436106100885760003560e01c8063b384abef1161005b578063b384abef1461012a578063d94c8caa14610146578063e2ba53f014610164578063e490e6991461018257610088565b8063013cf08b1461008d57806355a373d6146100be578063609ff1bd146100dc5780639e90d0d9146100fa575b600080fd5b6100a760048036038101906100a29190610581565b6101b2565b6040516100b59291906105d6565b60405180910390f35b6100c66101e6565b6040516100d3919061067e565b60405180910390f35b6100e461020c565b6040516100f19190610699565b60405180910390f35b610114600480360381019061010f91906106f2565b610294565b6040516101219190610699565b60405180910390f35b610144600480360381019061013f919061071f565b6102ac565b005b61014e610463565b60405161015b9190610699565b60405180910390f35b61016c610469565b604051610179919061075f565b60405180910390f35b61019c600480360381019061019791906106f2565b61049d565b6040516101a99190610699565b60405180910390f35b600281815481106101c257600080fd5b90600052602060002090600202016000915090508060000154908060010154905082565b600160009054906101000a900473ffffffffffffffffffffffffffffffffffffffff1681565b6000806000905060005b60028054905081101561028f5781600282815481106102385761023761077a565b5b906000526020600020906002020160010154111561027c57600281815481106102645761026361077a565b5b90600052602060002090600202016001015491508092505b8080610287906107d8565b915050610216565b505090565b60036020528060005260406000206000915090505481565b60006102b73361049d565b905080600360003373ffffffffffffffffffffffffffffffffffffffff1673ffffffffffffffffffffffffffffffffffffffff168152602001908152602001600020541061033a576040517f08c379a0000000000000000000000000000000000000000000000000000000008152600401610331906108a3565b60405180910390fd5b8082111561037d576040517f08c379a00000000000000000000000000000000000000000000000000000000081526004016103749061090f565b60405180910390fd5b81600284815481106103925761039161077a565b5b906000526020600020906002020160010160008282546103b2919061092f565b9250508190555081600360003373ffffffffffffffffffffffffffffffffffffffff1673ffffffffffffffffffffffffffffffffffffffff1681526020019081526020016000206000828254610408919061092f565b92505081905550823373ffffffffffffffffffffffffffffffffffffffff167fea66f58e474bc09f580000e81f31b334d171db387d0c6098ba47bd897741679b846040516104569190610699565b60405180910390a3505050565b60005481565b6000600261047561020c565b815481106104865761048561077a565b5b906000526020600020906002020160000154905090565b6000600160009054906101000a900473ffffffffffffffffffffffffffffffffffffffff1673ffffffffffffffffffffffffffffffffffffffff16633a46b1a8836000546040518363ffffffff1660e01b81526004016104fe929190610972565b602060405180830381865afa15801561051b573d6000803e3d6000fd5b505050506040513d601f19601f8201168201806040525081019061053f91906109b0565b9050919050565b600080fd5b6000819050919050565b61055e8161054b565b811461056957600080fd5b50565b60008135905061057b81610555565b92915050565b60006020828403121561059757610596610546565b5b60006105a58482850161056c565b91505092915050565b6000819050919050565b6105c1816105ae565b82525050565b6105d08161054b565b82525050565b60006040820190506105eb60008301856105b8565b6105f860208301846105c7565b9392505050565b600073ffffffffffffffffffffffffffffffffffffffff82169050919050565b6000819050919050565b600061064461063f61063a846105ff565b61061f565b6105ff565b9050919050565b600061065682610629565b9050919050565b60006106688261064b565b9050919050565b6106788161065d565b82525050565b6000602082019050610693600083018461066f565b92915050565b60006020820190506106ae60008301846105c7565b92915050565b60006106bf826105ff565b9050919050565b6106cf816106b4565b81146106da57600080fd5b50565b6000813590506106ec816106c6565b92915050565b60006020828403121561070857610707610546565b5b6000610716848285016106dd565b91505092915050565b6000806040838503121561073657610735610546565b5b60006107448582860161056c565b92505060206107558582860161056c565b9150509250929050565b600060208201905061077460008301846105b8565b92915050565b7f4e487b7100000000000000000000000000000000000000000000000000000000600052603260045260246000fd5b7f4e487b7100000000000000000000000000000000000000000000000000000000600052601160045260246000fd5b60006107e38261054b565b91507fffffffffffffffffffffffffffffffffffffffffffffffffffffffffffffffff8203610815576108146107a9565b5b600182019050919050565b600082825260208201905092915050565b7f5573657220686173207573656420757020616c6c20766f74696e6720706f776560008201527f7200000000000000000000000000000000000000000000000000000000000000602082015250565b600061088d602183610820565b915061089882610831565b604082019050919050565b600060208201905081810360008301526108bc81610880565b9050919050565b7f4e6f7420656e6f75676820566f74696e6720506f776572000000000000000000600082015250565b60006108f9601783610820565b9150610904826108c3565b602082019050919050565b60006020820190508181036000830152610928816108ec565b9050919050565b600061093a8261054b565b91506109458361054b565b925082820190508082111561095d5761095c6107a9565b5b92915050565b61096c816106b4565b82525050565b60006040820190506109876000830185610963565b61099460208301846105c7565b9392505050565b6000815190506109aa81610555565b92915050565b6000602082840312156109c6576109c5610546565b5b60006109d48482850161099b565b9150509291505056fea26469706673582212202306bb58d560561bba6ee2091f63d5b667355f75a7eb6c6378a24b20f196fb5464736f6c63430008110033",
    "linkReferences": {},
    "deployedLinkReferences": {}
}